1003132138จ่าสิบเอก      มนัส ทัศนบรรจง                       1990416904/10302      ถ.ราชวิถี เขตดุสิต                      กรุงเทพฯ       103000814578948     207280C0039 T 3750100093408                                                  9915700655294 001201 0917  B  +000  000   000 0 ตกลง
1004021937นางสาว         ชฎามาศ จีนประโคน #                   22001282 วพ.บรมราชชนนีแขวงทุ่งพญาไท                           เขตราชเทวี กทม.104000811040247     205080B0370 T 3310700236165                                                  9915700655619 001201 0917  B  +000  000   000 0 ตกลง
1004044302นาย            กิตติศักดิ์ พยัพวิภาพงศ์             118060663/86          ซ.เสนานิคม 1 อมรพันธ์9                  เขตลาดพร้าว กทม102300838811666     -08060A0000 T 3100602280374kittisak66@yahoo.com                              9915700654630 001201 0917A    +000  000   000 0 ตกลง
1004633314นาย            ศักดินันท์ สอนวงษ์                   127072146/93          ถ.เพชรเกษม 6 แขวงวัดท่าพระ              บางกอกใหญ่ กทม.106000881851150     306280B0050 T 1460300009938                                                  991570065352  001201 0917A    +000  000   000 0 ตกลง
1005075508นาย            จักรกริช โทจำเริญวัฒน์               12310084/279 ถ.มาเจริญแขวงหนองแขม                             เขตหนองแขม กทม.101600819181545     -1015001201 T 5749700000081t.chakkrit@gmail.com                              9915700653914 001201 0917A    +000  000   000 0 ตกลง
1005255208นาย            กฤษณพงษ์ ตันกูล                      1230407166/179        เดอะนิชคอนโด ลาดพร้าว130                เขตบางกะปิ กทม.102400860150062     30805001201 T 3560100337244tungool@hotmail.com                               9915700656025 001201 0917  B  +000  000   000 0 ตกลง
1005476393นาย            ธนพล เกษมสุขพัฒน์                    1370718247            ซ.ศูนย์การค้าบันเทิง คลองจั่น           เขตบางกะปิ กทม.102400957478883     11114001201 T 1103701458399icefarts@hotmail.com                              991570065377  001201 0917A    +000  000   000 0 ตกลง
1465301677นางสาว         พิมพ์พร ฤกษ์รุ่งเรือง                233030787             ซ.จรัญสนิทวงศ 91 แขวงบางอ้อ             เขตบางพลัด กทม.107000827027980     101160A0000 T 1100200532755pimmy_mimi@hotmail.com                            991570065496  001201 0917A    +000  000   000 0 ตกลง
1005503684นางสาว         ผาณิต กุลณรงค์                       2070616               146 ถ.ลาดพร้าว 42 แขวงสามเสนนอก         เขตห้วยขวาง กทม103100840212034     -0118001201 T 3101701507670                                                  991570065584  001201 0917A    +000  000   000 0 ตกลง
1005517894นางสาว         สกุลรัตน์ ดวงใจ                      235071448/1 ม.6       ต.ท่าขุนราม อ.เมือง                     กำแพงเพชร      620000875668368     103140B0518 T 1629900249294CAKE_KP_@HOTMAIL.COM                              991570065458  001201 0917A    +000  000   000 0 ตกลง
1005633157นางสาว         สุวิว เชาวน์วุฒิกุล                  203101620             ซ.ลาดปลาเค้า37 แขวงจรเข้บัว             เขตลาดพร้าว กทม102300816590231     30509001201 T 3100601245877                                                  991570065515  001201 0917 O   +000  000   000 0 ตกลง
2015512090นางสาว         สุภา วีระสัย                         2380704201/20         ถ.มิตรไมตรี แขวงดินแดง                  เขตดินแดง กทม. 104000955816568     20903001601 T 1103701749997                                                  991570065534  001201 0917A    +000  000   000 0 ตกลง
1005698406นางสาว         ณปภัช ณณัฏฐิปภา                      21512082/517          ม.รัตนาธิเบศร์ ต.บางรักพัฒนา            บางบัวทอง นนทบุ111100897874351     30926001201 T 3100500885803tinun_nun@hotmail.com                             991570065504  001201 0917  B  +0H1  000   000 0 ตกลง
3505211990นาย            ปดิภัทร นรากุลอนันต์                 1351215101 ม.13       ต.ป่าอ้อดอนชัย อ.เมือง                  เชียงราย       570000873589939     10611001201 T 1579900459621                                                  991570065325  001201 0917  B  +000  000   000 0 ตกลง
1014006320นาย            ณัฐพล ปานลักษณ์                      107060865/44 ม.12     แขวงศาลาธรรมสพน์ เขตทวีวัฒนา            กทม.           101700813634436     31228       T 3100905497922                                                  9915700655430 001201 0917  B  +000  000   000 0 ตกลง
1094902468นางสาว         ก้อนทิพย์ เหมือนสังข์                2191108420/8          แขวงทุ่งพญาไท เขตราชเทวี                กทม.           104000805784717     311120E0799 T 5620400050973                                                  991570065408  001201 0917  B  +000  000   000 0 ตกลง
10N5616654นาย            อนุวัฒน์ เครืองาม                    135112815 ม.10        ต.โพนเมืองน้อย อ.หัวตะพาน               อำนาจเจริญ     372400821277306     11030001201 T 1341800073998                                                  991570065313  001201 0917 O   +000  000   000 0 ตกลง
10N5736072นาย            สัมฤทธิ์ สีเมฆ                       130061963 ม.1         ต.ห้่วยทรายเหนือ อ.ชะอำ                 เพชรบุรี       761200970299481     30917001201 T 1760400033374                                                  991570065421  001201 0917 O   +000  000   000 0 ตกลง
10N5736116นางสาว         วานิชญา ลือซอ                        2340101241            ถ.ประชาราษฎร์บำเพ็ญ ซ.7 เขตห้วยขวาง     กทม.           103100856267471     -0917001201 T 8570184083410                                                  991570065431  001201 0917 O   +000  000   000 0 ตกลง
10N5736119นางสาว         น้ำผึ้ง สีเมฆ                        2241118               ฉิมหิชิตอพาร์ทเม้นต์ แขวงหัวหมาก เขตบางกกทม.           102400800526458     20917001201 T 3770100387789                                                  991570065441  001201 0917A    +000  000   000 0 ตกลง
10N5736121นาย            สุรินทร์ กาลคลอด                     12004015/5 ม.9        ถ.บางคู่วัด อ.บางบัวทอง                 นนทบุรี        111100894446028     30917001201 T 3801200601061                                                  991570065471  001201 0917A    +000  000   000 0 ตกลง
10N5736122นาย            อมรเทพ ศรีวิเชียร                    138123117 ม.2 ต.วังยางอ.ศรีประจันต์                           สุพรรณบุรี     721400899153283     10917001201 T 1729900360542                                                  991570065481  001201 0917A B  +000  000   000 0 ตกลง
10N5736126นาย            อุดรพร ลือชา                         130112316/139 ม.1     ต.ท่าวาสุกรี อ.พระนครศรีอยุธยา          พระนครศรีอยุธยา130000988366077     -0917001201 T 1149900120920                                                  991570065551  001201 0917 O   +000  000   000 0 ตกลง
1404101942นาย            ชานนท์ ธงวิลัย                       120121257/15 ม.4      ต.ท่าวาสุกรี อ.พระนครศรีอยุธยา          พระนครศรีอยุธยา130000898034003     -0917001201 TN3149900096120                                                  9915700655934 001201 0917  B  +000  00&       0 ตกลง
10N5736222นาย            เคียงแดน ศรีปัญญา                    1351221296/1 ม.2      ซ.สมวงศ์1 ต.รอบเวียง อ.เมือง            เชียงราย       570000805037756     10917001201 T 1579900461014                                                  991570065331  001201 0917 O   +000  000   000 0 ตกลง
10N5736224นาย            มงคล ไหลครบุรี                       114011035 ม.2 ต.นาทม  อ.นาทม                                  นครพนม         481400862220645     -0917001201 T 3650800403541                                                  991570065341  001201 0917 O   +000  000   000 0 ตกลง
10N5736225นาย            อาเปีย มาเยอะ                        1290514241 ซ.7        ถ.ประชาราษฎร์บำเพ็ญ แขวงห้วยขวาง        เขตดินแดง กทม. 103100884117716     30917001201 T 0570989164697                                                  991570065361  001201 0917 O   +000  000   000 0 ตกลง
10N5736226นางสาว         อภิสรา เกี้ยงไธสง                    2250220669            พัฒนาการอพาร์ทเมนท์ ซ.ลาดพร้าว80 แยก22  วังทองหลาง กทม.103100870564877     20917001201 T 3440800492090                                                  991570065411  001201 0917A B  +000  000   000 0 ตกลง
1263700227นาย            ภาสวีร์ ชื้อนิธิไพศาล #              120062310/96          ม.ทาวน์พลัส ซ.กรุงเทพกรีฑา 7            เขตบางกะปิ กทม.102400851003210     309280A0000 T 3659900158929makorn718@yahoo.com                               9915700655739 001201 0917  B  +000  000   000 0 ตกลง
1314600516นาย            กานต์ยุพน ปลูกงาม                    129071469/1 ม.14      ต.แสวงหา อ.แสวงหา                       อ่างทอง        141500894484504     107110E0799 T 1179900089020kanyupon@msn.com                                  9915700653840 001201 0917A    +000  000   000 0 ตกลง
